:0C0000000C9451000C9400000C940000C3
:10000C000C9400000C9400000C9400000C94000064
:10001C000C9400000C9400000C9400000C94000054
:10002C000C9400000C9400000C9400000C94000044
:10003C000C9400000C9400000C9400000C94000034
:10004C000C9400000C9400001027E80364000A00D4
:10005C00010000100001100001005600000000001B
:10006C0000000000483A25642525202000543A253C
:10007C006443202000483A202020202000543A20BD
:10008C0020202020000080C00A000400660002002E
:10009C00750292000000F894EE27ECBBF1E0F5BF7E
:1000AC00E5BF8DE0A2E0BB27ED938A95E9F780E0F0
:1000BC0098E0A0E6ED930197E9F7E4E9F0E085918B
:1000CC009591009761F0A591B59105901590BF01A0
:1000DC00F00105900D920197E1F7FB01F0CFEFE5F0
:1000EC00EDBFE8E0EEBFC0E6D2E00C947D00B0D0EE
:1000FC00A1E0BFD026D005D0A8ECB0E0BFD0FACF9D
:10010C00FFCFA8D0E03019F0E1E0CE2E0DC0CC200E
:10011C0059F0CC24992019F4E1E09E2E04C063948C
:10012C00E1E0E61508F4662497D0E03011F0E1E048
:10013C0005C0E0917402E03019F0E0E0E093740245
:10014C000895E52DF0E03097D1F5992021F4E8D20F
:10015C00ECD2FED234C0E62DF0E03097B9F40BD3DC
:10016C0060F4DED2E1E8F0E0FA93EA93E42D0BD3ED
:10017C00E0E013D3D5D2ECD208C013D320F4D0D204
:10018C00D4D2E6D202C0AA24BB2419C0E130A0E02C
:10019C00FA07A9F4F0D258F4C3D2C7D2E9E8F0E0D8
:1001AC00FA93EA93E72DEFD2E1E0F7D208C0F9D247
:1001BC0020F4B6D2BAD2CCD202C0AA24BB24089561
:1001CC00E3B3E0780895E3B3E0740895EFD2A32F7E
:1001DC0013D2D80150D24AC01A931A2F103011F0F2
:1001EC00929A01C092980C947B03E6D237D348C004
:1001FC00E0E0EABBEBBBE7BBE8BBE8E0E4BBE0EE6E
:10020C00E5BBE4E0E1BBE0E0E2BBE3BFE2BFECBF97
:10021C00EFBDEEBDEDBDECBDE7BDE6BDEBBDEABD92
:10022C00E9BDE8BDE2BDE5BDE4BDE3BDE9BFE5BFA9
:10023C00E4BFEAB9E0E8E8B9E0E0E0BFE6B9EDB95F
:10024C00E6BFA8E027D2E0E0EA93A0E0D5D108957C
:10025C00CFDF0895B5DF01C0B6DFEE23E1E009F092
:10026C00EE270895A3D23A93D801B0DFE5D22696B3
:10027C0008951A931A2FB0DF0C947B039DD2B5DF2F
:10028C00099119910895CFD29D015E811296ED913D
:10029C00FC9111973097E9F0D90192D28F013097E8
:1002AC0059F00230E0E01E0760F0F80131978F0141
:1002BC00D9011496ED93FC93D901129686D23197FD
:1002CC005083D901ED91FC911197FF230AF07DD257
:1002DC0005C0D901EFEFFFEFED93FC93ABD227965E
:1002EC000895BA93AA9326979ED210E0AC85BD854B
:1002FC00E0E0F0E0ED93FC93EA89FB893196EA8B20
:10030C00FB8B3197E4912E2FE03009F408C1E12FDB
:10031C00E03031F4253211F411E001C05CD2FEC0A2
:10032C00E130A1F4253211F456D2F7C012E040E0CE
:10033C0000E02D3211F401E0F1C02B3211F44BE24C
:10034C00EDC0203211F440E2E9C002C0E23039F4D1
:10035C0050E013E0203311F40068E0C003C0E33038
:10036C0009F0DCC0203310F02A3308F007C0AAE0F3
:10037C005A9F502DE22FE0535E0FD0C0E22FE33690
:10038C0039F430D2E889F989A481AA9331D2C5C055
:10039C00E33729F427D232D2AAD11E2F07C0E03777
:1003AC0049F420D22BD2AFD11E2F086002600F77F8
:1003BC0030E037C0E43611F0E93611F4046002C0C5
:1003CC00E53731F4E4E5F0E0EE83FF8315E00CC093
:1003DC00E83511F4086003C0E83709F09EC0EEE57B
:1003EC00F0E0EE83FF8314E002FF15C0FBD1A88977
:1003FC00B9891496ED91FD91EA87FB87AB85AA2309
:10040C0022F41FD2EA87FB874DE2403011F01F5FC8
:10041C0001C00B7F06C0E6D1A889B989D1D1EA8782
:10042C00FB8700FD10C0151770F407FF08C002FF12
:10043C0004C00B7F242F115001C020E301C020E227
:10044C00CAD15150F0CF312F01FF16C0303099F086
:10045C0003FF06C0EE81FF812591EE83FF8305C06B
:10046C00AE81BF812D91AE83BF83B5D1503009F0E1
:10047C0051503150EBCF48C020E3EE81FF81E5D1E4
:10048C00E887F987EE81FF813296EE83FF83E8855A
:10049C00F985AA85BB85AE17BF0750F02F5FA885DD
:1004AC00B985EA85FB85EA1BFB0BEA87FB87EFCF57
:1004BC002A3328F003FF02C0295F01C0295D04FD27
:1004CC0019C0213320F4A885B985119709F409C006
:1004DC00531710F000FF01C011C020E207FF0AC043
:1004EC0020E3006102FF06C00B7F4A9381D150309C
:1004FC0009F0515070D1503009F051503150A8854D
:10050C00B985129708F0B8CF00FF07C0503029F01A
:10051C005150E0E2EA936CD1F9CF10E0EDCEAC850E
:10052C00BD85ED91FD9186D164960895FF92F82ECC
:10053C00269779D1FE010024EF0DF01D46855785D5
:10054C00042E052A19F4EFEFFFEF23C0DE011896F5
:10055C000024AF0DB01D8D0148875987E0E0EA8774
:10056C00EB87DE011C960024AF0DB01DED91FD91C3
:10057C00FA93EA931A930A93E9E4F1E0FA93EA9373
:10058C00DE011C96AEDE9F01A885B985E0E0EC93F8
:10059C00F90150D12C96FF9008951A931A2F14FF3D
:1005AC0002C0C29A01C0C29815FF02C0C59A01C010
:1005BC00C59816FF02C0C69A01C0C69817FF02C0A4
:1005CC00C79A01C0C7988DE08A95F1F7C19A8DE062
:1005DC008A95F1F7C1988DE08A95F1F786C0AA93B8
:1005EC00A881DBDFE881E295E883A881D6DF85E886
:1005FC008A95F1F7219608951A930A931A2F0A8176
:10060C00E12FF0E0EB58FD4FE081E00FAE2FE7DF7C
:10061C000093790210937A02198108812396089528
:10062C00A2E0F6D0ACE0DBDFA1E0F2D0E0E0E093BA
:10063C007A02E093790208951A931A2F1A3031F046
:10064C00E0917B02A0917902AE1758F0E0E0EA93BA
:10065C00A0917A02AF5FA0937A02CEDF1A3009F430
:10066C0044C0E0917902EF5FE0937902C09AA12F28
:10067C00B6DFC0983AC0D9D09D01D9012F5F3F4F4A
:10068C00EC911E2FE03019F0A12FD6DFF6CFD4D08D
:10069C00249608951A931A2FBA9ABD9ABE9ABF9AA5
:1006AC00B99AB89AA29AC198C098AA9810937B024A
:1006BC00E12FE058E0937702E12FE054E0937802C9
:1006CC00A4E1B0E0CBD0A8D0A7D0A6D0A0E265DF43
:1006DC0088EC90E00197F1F7A8E281DFA4E07FDFDE
:1006EC00A5E87DDFA6E07BDF9BDF19910895BA9327
:1006FC00AA93A991B991EE27FF276D91662311F06A
:10070C003196FBCF0895BA93AA93AA27BB27E991F8
:10071C00F9910590002011F01196FBCFFD01089581
:10072C00E0E6F2E0FA93EA930895E0E7F0E0FA935A
:10073C00EA93E42DFF27662777278BD084E0F6DE3B
:10074C002896E0E0EA93EA93A0E6B2E08BDDE8CFEE
:10075C00E9E7F0E0FA93EA93E72DFF27662777277E
:10076C0078D084E0E3DE2896E0E0EA93E1E0EA93D7
:10077C00A0E6B2E077CDF50131965F01E3E0F0E061
:10078C00AE16BF060895FF276627772762D084E050
:10079C00CDDE2896E0E0EA930895EA93A0E6B2E075
:1007AC0061CDE6E0F0E0AE16BF0608953ED08D01B7
:1007BC003C812D812A9308951A930A938D010895F3
:1007CC001496ED91FC9111970895ED91FD91319650
:1007DC00FE93EE9308952A93AD85BE85EF85F88937
:1007EC0009950895E889F9893497E88BF98B089570
:1007FC00AD85BE85EF85F88909950895A889B989D5
:10080C001496ED91FD91EE83FF83AE81BF81089527
:10081C00E6DEA3E0B0E022C0A0E3BFDE88EC90E00F
:10082C000197F1F708955A934A933A932A931A939E
:10083C000A9308955D814C813B812A81198108813D
:10084C000895F195E195F04008950590F491E02D0F
:10085C0008957A936A93FA93EA930895109639F06F
:10086C00A89580ED97E00197F1F71197C9F70895D6
:00000001FF
