:040000000C947500E7
:100004000C9400000C9400000C9400000C9400006C
:100014000C9400000C9400000C9400000C9400005C
:100024000C9400000C9400000C94CA010C94000081
:100034000C9400000C9400000C9400000C9400003C
:100044000C9400000C9400000C94F9040C9400002F
:100054001027E80364000A000100001000011000EA
:100064000100000000000000000000000000483A09
:1000740025642525202000543A2564432020004887
:100084003A202020202000543A202020202000253F
:100094006425643A256425643A2564256400202097
:1000A4003A256425643A2564256400256425643A68
:1000B40020203A25642564000AD7233CA2E73BB6F6
:1000C40054E3253D000080C080C007000100020009
:1000D40066000A000400680002008302CC000100EC
:1000E4007E02CE000000F894EE27ECBBF1E0F5BFF1
:1000F400E5BF8DE0A2E0BB27ED938A95E9F780E0A8
:1001040098E0A0E6ED930197E9F7E0EDF0E0859142
:100114009591009761F0A591B59105901590BF0157
:10012400F00105900D920197E1F7FB01F0CFEFE5A7
:10013400EDBFE8E0EEBFC0E6D2E00C94A100E19789
:100144007AD177D005D0A4E6B0E08DD1FACFFFCF35
:1001540076D1E03019F0E1E0CE2E14C0CC2091F03D
:10016400CC24EAE0F0E0E0936202F0936302BB2067
:1001740019F4E1E0BE2E05C08394E5E08E1610F07C
:10018400BB2488245ED1E03021F0E1E0E0936702F3
:1001940049C0E0916702E03009F444C0E0E0E09334
:1001A4006702E3E0F0E0E0936002F0936102BB20B9
:1001B40011F0882009F006C0E5E06E0EE4E6E615CD
:1001C40008F46624BB2019F0E1E0E81509F006C044
:1001D4009394EEE1E91510F4EFE09E2EBB2019F0A4
:1001E400E2E0E81509F00CC0E0916402EF5FE093EF
:1001F4006402A0916402A83118F0E0E0E093640284
:10020400BB2019F0E3E0E81509F00CC0E0916502A9
:10021400EF5FE0936502A0916502AC3318F0E0E073
:10022400E09365028BD511F4BB2009F401C0BB2413
:100234000895E52DF0E0309709F091C0BB2051F40A
:1002440083D587D5E42D8AD593D598D5E72D86D542
:100254009AD585C0E82DF0E03097F1F499D513973D
:1002640060F472D5E3E8F0E098D5E0E09ED56CD573
:1002740085D5E92D73D587D50EC08AD5169750F448
:1002840063D567D5E62D6AD573D578D5E92D66D5BE
:100294007AD501C08ED563C0E130A0E0FA07E1F45D
:1002A40077D5139750F450D554D5E62D57D560D54E
:1002B400EBE8F0E072D567D50EC06AD5169750F416
:1002C40043D547D5E62D4AD553D558D5E92D46D53E
:1002D4005AD501C06ED543C0E230A0E0FA07F1F46C
:1002E40057D5139718F430D56AD517C051D516973A
:1002F40098F42AD5E2EAF0E0FA93EA93A091650231
:10030400AAD5A0916502B1D5A0916602A4D5A09109
:100314006602ABD5B4D501C04CD521C0E330A0E012
:10032400FA07E9F435D5139718F40ED548D517C054
:100334002FD5169798F408D5EFEAF0E0FA93EA93EC
:10034400A091640288D5A09164028FD5A091660221
:1003540082D5A091660289D592D501C02AD5089587
:10036400E3B3E0780895E3B3E07408958ED5A32F42
:1003740038D2D80175D26FC01A931A2F103011F0E9
:10038400929A01C092980C946A0485D50FD66DC0D8
:10039400AA93BA93EA93FA93EFB7EA93E6E0E2BF3B
:1003A400AFE7B2E07CD53D9740F0E0E0E0937F0218
:1003B400E0938002A0E6B2E072D5A1E8B2E06FD586
:1003C400EE37A0E0FA0770F0E0E0E0938102E093FA
:1003D4008202B4D439F0A2E6B2E0ED91FD913197F6
:1003E400FE93EE93E991EFBFF991E991B991A99147
:1003F4001895E1E0EABBE0E0EBBBE7BBE8BBE8E073
:10040400E4BBE0EEE5BBE4ECE1BBE0E0E2BBE4E04E
:10041400E3BFE6E0E2BFE0E0ECBFE1E0E9BFA4E671
:10042400B0E058D2A8E029D27894E0E0EA93EA93C5
:10043400A0E049D40895DDDFA1E010D0089590DF55
:1004440001C091DFEE23E1E009F0EE2708951DD508
:100454003A93D8018BDF64D5269608951A931A2F00
:100464008BDF0C946A0417D590DF099119910895D4
:100474004ED59D015E811296ED91FC9111973097B6
:10048400E9F0D90112D58F01309759F00230E0E03C
:100494001E0760F0F80131978F01D9011496ED938E
:1004A400FC93D9011296FBD431975083D901ED9175
:1004B400FC911197FF230AF0F2D405C0D901EFEFA4
:1004C400FFEFED93FC932AD527960895BA93AA9348
:1004D40026971DD510E0AC85BD85E0E0F0E0ED93F6
:1004E400FC93EA89FB893196EA8BFB8B3197E49183
:1004F4002E2FE03009F408C1E12FE03031F4253229
:1005040011F411E001C0D6D4FEC0E130A1F42532CB
:1005140011F4D0D4F7C012E040E000E02D3211F421
:1005240001E0F1C02B3211F44BE2EDC0203211F4A2
:1005340040E2E9C002C0E23039F450E013E0203375
:1005440011F40068E0C003C0E33009F0DCC02033DC
:1005540010F02A3308F007C0AAE05A9F502DE22F6A
:10056400E0535E0FD0C0E22FE33639F4AAD4E88911
:10057400F989A481AA93ABD4C5C0E33729F4A1D4E3
:10058400ACD4C3D31E2F07C0E03749F49AD4A5D402
:10059400C8D31E2F086002600F7730E037C0E436FE
:1005A40011F0E93611F4046002C0E53731F4E4E5F2
:1005B400F0E0EE83FF8315E00CC0E83511F4086029
:1005C40003C0E83709F09EC0EEE5F0E0EE83FF8358
:1005D40014E002FF15C075D4A889B9891496ED9169
:1005E400FD91EA87FB87AB85AA2322F49ED4EA8790
:1005F400FB874DE2403011F01F5F01C00B7F06C046
:1006040060D4A889B98951D4EA87FB8700FD10C05A
:10061400151770F407FF08C002FF04C00B7F242FD6
:10062400115001C020E301C020E244D45150F0CF66
:10063400312F01FF16C0303099F003FF06C0EE8160
:10064400FF812591EE83FF8305C0AE81BF812D918B
:10065400AE83BF832FD4503009F051503150EBCFCB
:1006640048C020E3EE81FF8198D4E887F987EE81C2
:10067400FF813296EE83FF83E885F985AA85BB85E1
:10068400AE17BF0750F02F5FA885B985EA85FB85B3
:10069400EA1BFB0BEA87FB87EFCF2A3328F003FF23
:1006A40002C0295F01C0295D04FD19C0213320F473
:1006B400A885B985119709F409C0531710F000FFF4
:1006C40001C011C020E207FF0AC020E3006102FF5D
:1006D40006C00B7F4A93FBD3503009F05150EAD344
:1006E400503009F051503150A885B985129708F05F
:1006F400B8CF00FF07C0503029F05150E0E2EA9330
:10070400E6D3F9CF10E0EDCEAC85BD85ED91FD913A
:1007140005D464960895FF92F82E2697F8D3FE0127
:100724000024EF0DF01D46855785042E052A19F483
:10073400EFEFFFEF23C0DE0118960024AF0DB01DCC
:100744008D0148875987E0E0EA87EB87DE011C9634
:100754000024AF0DB01DED91FD91FA93EA931A9325
:100764000A93EAE3F2E0FA93EA93DE011C96AEDE22
:100774009F01A885B985E0E0EC93F901CFD32C96CD
:10078400FF9008951A931A2F14FF02C0C29A01C051
:10079400C29815FF02C0C59A01C0C59816FF02C0D1
:1007A400C69A01C0C69817FF02C0C79A01C0C7986D
:1007B4008DE08A95F1F7C19A8DE08A95F1F7C19899
:1007C4008DE08A95F1F784C0AA93A881DBDFE881E4
:1007D400E295E883A881D6DF85E88A95F1F721962A
:1007E40008951A930A931A2F0A81E12FF0E0ED5726
:1007F400FD4FE081E00FAE2FE7DF009387021093F7
:1008040088021981088123960895A2E070D3ACE090
:10081400DBDFA1E06CD3E0E0E0938802E0938702A1
:1008240008951A931A2F1A3031F0E0918902A09199
:100834008702AE1758F0E0E0EA93A0918802AF5F18
:10084400A0938802CEDF1A3009F442C0E0918702F7
:10085400EF5FE0938702C09AA12FB6DFC09838C03B
:1008640058D39D01D9012F5F3F4FEC911E2FE030EB
:1008740019F0A12FD6DFF6CF50C01A931A2FBA9AC7
:10088400BD9ABE9ABF9AB99AB89AA29AC198C098CA
:10089400AA9810938902E12FE058E0938502E12F92
:1008A400E054E0938602A4E1B0E080D324D323D3C0
:1008B40022D3A0E267DF88EC90E00197F1F7A8E289
:1008C40083DFA4E081DFA5E87FDFA6E07DDF9DDF95
:1008D400199108951ED39D01689421F8E7E0E093EF
:1008E4007E02E0E0E0939202E0939302E0939402AC
:1008F400E0939502A998A898E6BFE1B1EC7FE1B92D
:10090400F901A0EABFE015D31E2F183008F01850E3
:1009140010B9E6B7E078E564E6BF02D324960895FB
:100924002497F5D21A2F2A853B850C854D855E8543
:1009340021FE59C0EF85EE0FE0938A0240938B02AB
:1009440050938C02E0E0E0937C0200938D022093AC
:100954008E0230938F02E0937D0210939002E6E0C2
:10096400E0937E027894003069F0042E052AD9F1D0
:10097400103021F000240216030609F001C033C030
:1009840068940BC0103039F1022E032A61F1E09112
:100994008A02E160E0938A02E89420F8E89421F85E
:1009A400E6B7EF70E06AE6BFE0E2F1EA67E070E024
:1009B400A9D221FC10C0EE81FF8168857985319729
:1009C400604070409FD231F4E5E0E0937E02689489
:1009D40021F809C0EECFA0917E02E0E0EA17E1E041
:1009E40009F0EE2701C0E0E099D2609608950A92DA
:1009F4001A92FA926A937A938A939A93AA93BA93DD
:100A0400EA93FA93EFB7EA935A934A933A932A9361
:100A14001A930A9310917D0200917C0230918D0209
:100A240020917E02E12FA0918E02B0918F02F0E01E
:100A3400EA0FFB1FAF01E1B1E87FE83011F420E0D9
:100A440002C0E03119F4E0918A0210C0E83111F0DB
:100A5400E83221F5031780F4E02F0F5FA0918B0299
:100A6400B0918C02F0E0AE0FBF1FEC91E3B9E6B792
:100A7400EF70E068E6BF11C0E09190021E1760F4C9
:100A8400E0918A02E160E0938A02E89420F8E6B7F4
:100A9400EF70E06AE6BFFBC033C0F9C0E03529F46B
:100AA400E3B1DA01EC931F5F02C0E03471F4E0912A
:100AB4009002E1501E1720F0E6B7EF70E06803C023
:100AC400E6B7EF70E06CE6BFE2C0E83529F4E3B1C5
:100AD400DA01EC931F5F02C0E03209F402C0E03394
:100AE40009F402C0E83469F4203051F420FE03C054
:100AF400031728F005C0E09190021E1708F424E0C3
:100B0400C0C0E83329F422E0E6B7EF70E068BCC067
:100B1400E83611F0E83711F422E005C0E03611F0B0
:100B2400E03791F420E010E0E89420F8E09191029D
:100B3400E03029F421E0E6B7EF70E06803C0E6B7DF
:100B4400EF70E06CE6BFA3C0E03811F0E03929F59E
:100B540020FE02C021E095C0E3B1DA01EC931F5FEF
:100B6400E09191021E17B0F4E0919202F091930289
:100B7400309711F426E085C0A0E0E0919202F09154
:100B840093020995E03029F0E6B7EF70E06CE6BF18
:100B94007EC002C0689420F802C0E83809F402C09C
:100BA400E83929F4E6B7EF70E068E6BF70C0E03AD0
:100BB400A9F4E6B7EF70E06CE6BF689421F8E09121
:100BC4009202F0919302309739F0A1E0E091920201
:100BD400F0919302099501C026E059C0E03B11F45D
:100BE40022E002C0E83AB9F4E0919402F09195024F
:100BF400309759F0A0E0E0919402F09195020995A4
:100C04003E2FE03011F020E002C026E03AC000E0C0
:100C1400E89420F802C0E83BE1F420FE02C021E0A1
:100C240030C0E02F0F5FA0918B02B0918C02F0E0F6
:100C3400AE0FBF1FEC91E3B9031720F4E6B7EF70D2
:100C4400E06C05C0689420F8E6B7EF70E068E6BF92
:100C54001EC0E03C11F0E83C89F4E6B7EF70E06CAC
:100C6400E6BFE0919402F0919502309731F0A1E053
:100C7400E0919402F0919502099507C0E03039F4AF
:100C840023E0E6B7EF70E06DE6BF689421F81093B7
:100C94007D0200937C0220937E0230938D020991A1
:100CA40019912991399149915991E991EFBFF9919C
:100CB400E991B991A9919991899179916991F99061
:100CC400199009901895229724D11A2F0E813F81EB
:100CD4003370003009F03061103009F03068E7E01B
:100CE400EC83FE0135963083E8E6EA93FE013596FF
:100CF400FA93EA93E2E0EA93E0E0F0E0FA93EA930D
:100D0400A0E00EDE0DD128960895BA93AA93A99176
:100D1400B991EE27FF276D91662311F03196FBCF31
:100D24000895BA93AA93AA27BB27E991F99105904C
:100D3400002011F01196FBCFFD010895E0916202AD
:100D4400F091630230970895E8E6F2E0FA93EA93AB
:100D54000895E2E7F0E0FA93EA930895FF276627FF
:100D640077271FD184E0D7DC2896E0E0EA93089542
:100D7400E0E0EA93A8E6B2E06ADBE6CFEBE7F0E076
:100D8400FA93EA930895E1E0EA93A8E6B2E05FCB30
:100D9400A0916002B09161020895FA93EA9380E011
:100DA400BADC2496E0E0EA930895EA93A8E6B2E078
:100DB4004ECBE0E0E0936002E09361020895E3E942
:100DC400F0E0FA93EA93A0916402B0E0EAE0F0E084
:100DD400C3D06F2F660F660B762FE3D0A091640209
:100DE400BB27EAE0F0E0BDD06F2F660F660B762FCD
:100DF400D8D0A0916502B0E0EAE0F0E0ADD06F2F6A
:100E0400660F660B762FCDD0A0916502BB27EAE072
:100E1400F0E0A7D06F2F660F660B762FC2D0A0919B
:100E24006602B0E0EAE0F0E097D06F2F660F660B41
:100E3400762FB7D0A0916602BB27EAE0F0E091D00C
:100E44006F2F660F660B762FACD088E164DC6C964E
:100E5400E0E0EA93AACFB0E0EAE0F0E07DD06F2FC3
:100E6400660F660B762F9DD00895BB27EAE0F0E06D
:100E740078D06F2F660F660B762F93D0089580E19C
:100E84004ADC6496E0E0EA9390CF43D08D013C8144
:100E94002D812A9308951A930A938D010895ED9153
:100EA400FD913196FE93EE9308951496ED91FC9185
:100EB400119708952A93AD85BE85EF85F889099524
:100EC4000895E889F9893497E88BF98B0895AD85FD
:100ED400BE85EF85F88909950895A889B98914967E
:100EE400ED91FD91EE83FF83AE81BF8108956CDCAB
:100EF400A3E0B0E05BC0A0E345DC88EC90E00197A0
:100F0400F1F70895EE83FF836887798708955A93EC
:100F14004A933A932A931A930A9308955D814C81D4
:100F24003B812A81198108810895F195E195F0406A
:100F340008950024112490E1AA0FBB1F001C111C6A
:100F44000E1A1F0A18F40E0E1F1E01C0A1609A95F6
:100F540099F7FD01D001089512D0EBDF0EF4E5DF1F
:100F64000895E894B7FF04C0B195A195B040689482
:100F7400F7FDDBDFDEDFFD010EF4D7DF0895E89433
:100F8400F7FF02C0D2DF6894B7FF06C0B195A19500
:100F9400B04000F8039400FA08950590F491E02D10
:100FA40008957A936A93FA93EA930895109639F020
:100FB400A89580ED97E00197F1F71197C9F7089587
:00000001FF
